{
  "contractName": "SimpleBank",
  "abi": [
    {
      "inputs": [],
      "payable": true,
      "stateMutability": "payable",
      "type": "constructor"
    },
    {
      "anonymous": false,
      "inputs": [
        {
          "indexed": true,
          "internalType": "address",
          "name": "accountAddress",
          "type": "address"
        },
        {
          "indexed": false,
          "internalType": "uint256",
          "name": "amount",
          "type": "uint256"
        }
      ],
      "name": "LogDepositMade",
      "type": "event"
    },
    {
      "constant": true,
      "inputs": [],
      "name": "owner",
      "outputs": [
        {
          "internalType": "address",
          "name": "",
          "type": "address"
        }
      ],
      "payable": false,
      "stateMutability": "view",
      "type": "function"
    },
    {
      "constant": false,
      "inputs": [],
      "name": "enroll",
      "outputs": [
        {
          "internalType": "uint256",
          "name": "",
          "type": "uint256"
        }
      ],
      "payable": false,
      "stateMutability": "nonpayable",
      "type": "function"
    },
    {
      "constant": false,
      "inputs": [],
      "name": "deposit",
      "outputs": [
        {
          "internalType": "uint256",
          "name": "",
          "type": "uint256"
        }
      ],
      "payable": true,
      "stateMutability": "payable",
      "type": "function"
    },
    {
      "constant": false,
      "inputs": [
        {
          "internalType": "uint256",
          "name": "withdrawAmount",
          "type": "uint256"
        }
      ],
      "name": "withdraw",
      "outputs": [
        {
          "internalType": "uint256",
          "name": "",
          "type": "uint256"
        }
      ],
      "payable": false,
      "stateMutability": "nonpayable",
      "type": "function"
    },
    {
      "constant": true,
      "inputs": [],
      "name": "balance",
      "outputs": [
        {
          "internalType": "uint256",
          "name": "",
          "type": "uint256"
        }
      ],
      "payable": false,
      "stateMutability": "view",
      "type": "function"
    },
    {
      "constant": true,
      "inputs": [],
      "name": "depositsBalance",
      "outputs": [
        {
          "internalType": "uint256",
          "name": "",
          "type": "uint256"
        }
      ],
      "payable": false,
      "stateMutability": "view",
      "type": "function"
    }
  ],
  "bytecode": "0x60806040526729a2241af62c0000341015610065576040517f08c379a00000000000000000000000000000000000000000000000000000000081526004018080602001828103825260258152602001806106a26025913960400191505060405180910390fd5b6000600281905550336000806101000a81548173ffffffffffffffffffffffffffffffffffffffff021916908373ffffffffffffffffffffffffffffffffffffffff1602179055506105e6806100bc6000396000f3fe6080604052600436106100555760003560e01c8063138fbe711461005a5780632e1a7d4d146100855780638da5cb5b146100d4578063b69ef8a81461012b578063d0e30db014610156578063e65f2a7e14610174575b600080fd5b34801561006657600080fd5b5061006f61019f565b6040518082815260200191505060405180910390f35b34801561009157600080fd5b506100be600480360360208110156100a857600080fd5b81019080803590602001909291905050506101a7565b6040518082815260200191505060405180910390f35b3480156100e057600080fd5b506100e961031c565b604051808273ffffffffffffffffffffffffffffffffffffffff1673ffffffffffffffffffffffffffffffffffffffff16815260200191505060405180910390f35b34801561013757600080fd5b50610140610341565b6040518082815260200191505060405180910390f35b61015e610388565b6040518082815260200191505060405180910390f35b34801561018057600080fd5b506101896104df565b6040518082815260200191505060405180910390f35b600047905090565b6000600160003373ffffffffffffffffffffffffffffffffffffffff1673ffffffffffffffffffffffffffffffffffffffff16815260200190815260200160002054821115610241576040517f08c379a00000000000000000000000000000000000000000000000000000000081526004018080602001828103825260218152602001806105916021913960400191505060405180910390fd5b81600160003373ffffffffffffffffffffffffffffffffffffffff1673ffffffffffffffffffffffffffffffffffffffff168152602001908152602001600020600082825403925050819055503373ffffffffffffffffffffffffffffffffffffffff166108fc839081150290604051600060405180830381858888f193505050501580156102d4573d6000803e3d6000fd5b50600160003373ffffffffffffffffffffffffffffffffffffffff1673ffffffffffffffffffffffffffffffffffffffff168152602001908152602001600020549050919050565b6000809054906101000a900473ffffffffffffffffffffffffffffffffffffffff1681565b6000600160003373ffffffffffffffffffffffffffffffffffffffff1673ffffffffffffffffffffffffffffffffffffffff16815260200190815260200160002054905090565b60008034116103ff576040517f08c379a000000000000000000000000000000000000000000000000000000000815260040180806020018281038252601e8152602001807f4465706f736974206d7573742062652067726561746572207468616e2030000081525060200191505060405180910390fd5b34600160003373ffffffffffffffffffffffffffffffffffffffff1673ffffffffffffffffffffffffffffffffffffffff168152602001908152602001600020600082825401925050819055503373ffffffffffffffffffffffffffffffffffffffff167fa8126f7572bb1fdeae5b5aa9ec126438b91f658a07873f009d041ae690f3a193346040518082815260200191505060405180910390a2600160003373ffffffffffffffffffffffffffffffffffffffff1673ffffffffffffffffffffffffffffffffffffffff16815260200190815260200160002054905090565b60006003600254101561054b57670de0b6b3a7640000600160003373ffffffffffffffffffffffffffffffffffffffff1673ffffffffffffffffffffffffffffffffffffffff168152602001908152602001600020819055506002600081548092919060010191905055505b600160003373ffffffffffffffffffffffffffffffffffffffff1673ffffffffffffffffffffffffffffffffffffffff1681526020019081526020016000205490509056fe496e73756666696369656e742062616c616e636520746f20776974686472617721a265627a7a723158209fc4c1b707afd72e9cef72d1670035d4786f98d464354b305c6976d0c8f4a09564736f6c63430005100032496e73756666696369656e7420696e697469616c2066756e64696e67207265717569726564",
  "source": "//SPDX-License-Identifier: MIT\npragma solidity >= 0.5.0 < 0.7.0;\n\ncontract SimpleBank {\n  address public owner;\n  mapping (address => uint) private balances;\n  uint numberOfClients;\n\n  event LogDepositMade(address indexed accountAddress, uint amount);\n\n  constructor() public payable { //need to be able to pay the contract with the initial 30 ether\n    require(msg.value >= 3 ether, \"Insufficient initial funding required\");\n    numberOfClients = 0;\n    owner = msg.sender;\n  }\n\n  function enroll() public returns(uint) {\n    if (numberOfClients < 3) {\n      balances[msg.sender] = 1 ether;\n      numberOfClients++;\n    }\n    return balances[msg.sender];\n  }\n\n  function deposit() public payable returns(uint) {\n    require(msg.value > 0, \"Deposit must be greater than 0\");\n    balances[msg.sender] += msg.value;\n    emit LogDepositMade(msg.sender, msg.value);\n    return balances[msg.sender];\n  }\n\n  function withdraw(uint withdrawAmount) public returns(uint) {\n    require(withdrawAmount <= balances[msg.sender], \"Insufficient balance to withdraw!\");\n    balances[msg.sender] -= withdrawAmount;\n    msg.sender.transfer(withdrawAmount);\n    return balances[msg.sender];\n  }\n\n  function balance() public view returns (uint) {\n    return balances[msg.sender];\n  }\n\n  function depositsBalance() public view returns (uint) {\n    return address(this).balance;\n  }\n}\n",
  "sourcePath": "D:/Smart Contract Development/simple-bank/contracts/SimpleBank.sol",
  "compiler": {
    "name": "solc",
    "version": "0.5.16+commit.9c3226ce.Emscripten.clang"
  },
  "schemaVersion": "3.2.3",
  "updatedAt": "2020-08-02T14:16:10.154Z",
  "networkType": "ethereum",
  "devdoc": {
    "methods": {}
  },
  "userdoc": {
    "methods": {}
  }
}